{
  "_format": "hh-sol-artifact-1",
  "contractName": "ClaimRewards",
  "sourceName": "contracts/ClaimRewards.sol",
  "abi": [
    {
      "inputs": [
        {
          "internalType": "address",
          "name": "_rewardsToken",
          "type": "address"
        }
      ],
      "stateMutability": "nonpayable",
      "type": "constructor"
    },
    {
      "anonymous": false,
      "inputs": [
        {
          "indexed": true,
          "internalType": "address",
          "name": "previousOwner",
          "type": "address"
        },
        {
          "indexed": true,
          "internalType": "address",
          "name": "newOwner",
          "type": "address"
        }
      ],
      "name": "OwnershipTransferred",
      "type": "event"
    },
    {
      "anonymous": false,
      "inputs": [
        {
          "indexed": true,
          "internalType": "address",
          "name": "user",
          "type": "address"
        },
        {
          "indexed": false,
          "internalType": "uint256",
          "name": "amount",
          "type": "uint256"
        }
      ],
      "name": "claimReward",
      "type": "event"
    },
    {
      "anonymous": false,
      "inputs": [
        {
          "indexed": false,
          "internalType": "uint256",
          "name": "time",
          "type": "uint256"
        },
        {
          "indexed": false,
          "internalType": "uint256",
          "name": "amount",
          "type": "uint256"
        }
      ],
      "name": "rewardsDeposited",
      "type": "event"
    },
    {
      "anonymous": false,
      "inputs": [
        {
          "indexed": false,
          "internalType": "uint256",
          "name": "totalRewards",
          "type": "uint256"
        }
      ],
      "name": "rewardsUploaded",
      "type": "event"
    },
    {
      "inputs": [
        {
          "internalType": "uint256",
          "name": "_amount",
          "type": "uint256"
        }
      ],
      "name": "claimRewards",
      "outputs": [],
      "stateMutability": "nonpayable",
      "type": "function"
    },
    {
      "inputs": [
        {
          "internalType": "address",
          "name": "_rewardsToken",
          "type": "address"
        },
        {
          "internalType": "uint256",
          "name": "_amount",
          "type": "uint256"
        }
      ],
      "name": "depositRewardTokens",
      "outputs": [],
      "stateMutability": "nonpayable",
      "type": "function"
    },
    {
      "inputs": [],
      "name": "getRewardTokenAddress",
      "outputs": [
        {
          "internalType": "address",
          "name": "",
          "type": "address"
        }
      ],
      "stateMutability": "view",
      "type": "function"
    },
    {
      "inputs": [],
      "name": "owner",
      "outputs": [
        {
          "internalType": "address",
          "name": "",
          "type": "address"
        }
      ],
      "stateMutability": "view",
      "type": "function"
    },
    {
      "inputs": [
        {
          "internalType": "address",
          "name": "",
          "type": "address"
        }
      ],
      "name": "pendingRewards",
      "outputs": [
        {
          "internalType": "uint256",
          "name": "",
          "type": "uint256"
        }
      ],
      "stateMutability": "view",
      "type": "function"
    },
    {
      "inputs": [],
      "name": "renounceOwnership",
      "outputs": [],
      "stateMutability": "nonpayable",
      "type": "function"
    },
    {
      "inputs": [],
      "name": "rewardsToken",
      "outputs": [
        {
          "internalType": "contract IERC20",
          "name": "",
          "type": "address"
        }
      ],
      "stateMutability": "view",
      "type": "function"
    },
    {
      "inputs": [
        {
          "internalType": "address",
          "name": "newOwner",
          "type": "address"
        }
      ],
      "name": "transferOwnership",
      "outputs": [],
      "stateMutability": "nonpayable",
      "type": "function"
    },
    {
      "inputs": [
        {
          "internalType": "address[]",
          "name": "_holders",
          "type": "address[]"
        },
        {
          "internalType": "uint256[]",
          "name": "_rewardAmounts",
          "type": "uint256[]"
        },
        {
          "internalType": "uint256",
          "name": "_totalRewards",
          "type": "uint256"
        }
      ],
      "name": "uploadRewards",
      "outputs": [],
      "stateMutability": "nonpayable",
      "type": "function"
    }
  ],
  "bytecode": "0x60a06040523480156200001157600080fd5b5060405162001de238038062001de28339818101604052810190620000379190620001f5565b60016000819055506200005f620000536200011060201b60201c565b6200011860201b60201c565b600073ffffffffffffffffffffffffffffffffffffffff168173ffffffffffffffffffffffffffffffffffffffff161415620000d2576040517f08c379a0000000000000000000000000000000000000000000000000000000008152600401620000c99062000248565b60405180910390fd5b8073ffffffffffffffffffffffffffffffffffffffff1660808173ffffffffffffffffffffffffffffffffffffffff1660601b8152505050620002f2565b600033905090565b6000600160009054906101000a900473ffffffffffffffffffffffffffffffffffffffff16905081600160006101000a81548173ffffffffffffffffffffffffffffffffffffffff021916908373ffffffffffffffffffffffffffffffffffffffff1602179055508173ffffffffffffffffffffffffffffffffffffffff168173ffffffffffffffffffffffffffffffffffffffff167f8be0079c531659141344cd1fd0a4f28419497f9722a3daafe3b4186f6b6457e060405160405180910390a35050565b600081519050620001ef81620002d8565b92915050565b6000602082840312156200020857600080fd5b60006200021884828501620001de565b91505092915050565b6000620002306017836200026a565b91506200023d82620002af565b602082019050919050565b60006020820190508181036000830152620002638162000221565b9050919050565b600082825260208201905092915050565b600062000288826200028f565b9050919050565b600073ffffffffffffffffffffffffffffffffffffffff82169050919050565b7f6f6e6c79206e6f6e2d7a65726f20616464726573736573000000000000000000600082015250565b620002e3816200027b565b8114620002ef57600080fd5b50565b60805160601c611aae620003346000396000818161033c0152818161049d0152818161053101528181610689015281816107c101526109e40152611aae6000f3fe608060405234801561001057600080fd5b50600436106100935760003560e01c80638da5cb5b116100665780638da5cb5b1461010a57806399e117a014610128578063c8bb426414610146578063d1af0c7d14610162578063f2fde38b1461018057610093565b80630962ef79146100985780632cb99a3b146100b457806331d7a262146100d0578063715018a614610100575b600080fd5b6100b260048036038101906100ad919061116d565b61019c565b005b6100ce60048036038101906100c9919061107f565b6103d1565b005b6100ea60048036038101906100e59190611056565b6105bb565b6040516100f79190611606565b60405180910390f35b6101086105d3565b005b61011261065b565b60405161011f91906113ee565b60405180910390f35b610130610685565b60405161013d91906113ee565b60405180910390f35b610160600480360381019061015b91906110bb565b6106ad565b005b61016a6109e2565b6040516101779190611469565b60405180910390f35b61019a60048036038101906101959190611056565b610a06565b005b6000600260003373ffffffffffffffffffffffffffffffffffffffff1673ffffffffffffffffffffffffffffffffffffffff168152602001908152602001600020541161021e576040517f08c379a0000000000000000000000000000000000000000000000000000000008152600401610215906114a6565b60405180910390fd5b80600260003373ffffffffffffffffffffffffffffffffffffffff1673ffffffffffffffffffffffffffffffffffffffff1681526020019081526020016000205410156102a0576040517f08c379a0000000000000000000000000000000000000000000000000000000008152600401610297906114c6565b60405180910390fd5b6102f281600260003373ffffffffffffffffffffffffffffffffffffffff1673ffffffffffffffffffffffffffffffffffffffff16815260200190815260200160002054610afe90919063ffffffff16565b600260003373ffffffffffffffffffffffffffffffffffffffff1673ffffffffffffffffffffffffffffffffffffffff1681526020019081526020016000208190555061038033827f000000000000000000000000000000000000000000000000000000000000000073ffffffffffffffffffffffffffffffffffffffff16610b149092919063ffffffff16565b3373ffffffffffffffffffffffffffffffffffffffff167f174e31c4b7bff04f5485142590a104a3d74ac636ea6a070e5157921e2b5f9848826040516103c69190611606565b60405180910390a250565b60026000541415610417576040517f08c379a000000000000000000000000000000000000000000000000000000000815260040161040e906115c6565b60405180910390fd5b6002600081905550610427610b9a565b73ffffffffffffffffffffffffffffffffffffffff1661044561065b565b73ffffffffffffffffffffffffffffffffffffffff161461049b576040517f08c379a000000000000000000000000000000000000000000000000000000000815260040161049290611526565b60405180910390fd5b7f000000000000000000000000000000000000000000000000000000000000000073ffffffffffffffffffffffffffffffffffffffff168273ffffffffffffffffffffffffffffffffffffffff1614610529576040517f08c379a000000000000000000000000000000000000000000000000000000000815260040161052090611586565b60405180910390fd5b6105763330837f000000000000000000000000000000000000000000000000000000000000000073ffffffffffffffffffffffffffffffffffffffff16610ba2909392919063ffffffff16565b7f373cbcccbf652e87ca556ab2040d45c3ecb498ba1432ba195a8f462634c7afb642826040516105a7929190611621565b60405180910390a160016000819055505050565b60026020528060005260406000206000915090505481565b6105db610b9a565b73ffffffffffffffffffffffffffffffffffffffff166105f961065b565b73ffffffffffffffffffffffffffffffffffffffff161461064f576040517f08c379a000000000000000000000000000000000000000000000000000000000815260040161064690611526565b60405180910390fd5b6106596000610c2b565b565b6000600160009054906101000a900473ffffffffffffffffffffffffffffffffffffffff16905090565b60007f0000000000000000000000000000000000000000000000000000000000000000905090565b600260005414156106f3576040517f08c379a00000000000000000000000000000000000000000000000000000000081526004016106ea906115c6565b60405180910390fd5b6002600081905550610703610b9a565b73ffffffffffffffffffffffffffffffffffffffff1661072161065b565b73ffffffffffffffffffffffffffffffffffffffff1614610777576040517f08c379a000000000000000000000000000000000000000000000000000000000815260040161076e90611526565b60405180910390fd5b8282905085859050146107bf576040517f08c379a00000000000000000000000000000000000000000000000000000000081526004016107b690611546565b60405180910390fd5b7f000000000000000000000000000000000000000000000000000000000000000073ffffffffffffffffffffffffffffffffffffffff166370a08231306040518263ffffffff1660e01b815260040161081891906113ee565b60206040518083038186803b15801561083057600080fd5b505afa158015610844573d6000803e3d6000fd5b505050506040513d601f19601f820116820180604052508101906108689190611196565b8111156108aa576040517f08c379a00000000000000000000000000000000000000000000000000000000081526004016108a1906115e6565b60405180910390fd5b60005b8585905081101561099b578383828181106108f1577f4e487b7100000000000000000000000000000000000000000000000000000000600052603260045260246000fd5b9050602002013560026000888885818110610935577f4e487b7100000000000000000000000000000000000000000000000000000000600052603260045260246000fd5b905060200201602081019061094a9190611056565b73ffffffffffffffffffffffffffffffffffffffff1673ffffffffffffffffffffffffffffffffffffffff1681526020019081526020016000208190555080806109939061174f565b9150506108ad565b507ff8079795d7d0cdbc9e5e2e89d5b11c76e2f79619aaed8ccbb97930258676915f816040516109cb9190611606565b60405180910390a160016000819055505050505050565b7f000000000000000000000000000000000000000000000000000000000000000081565b610a0e610b9a565b73ffffffffffffffffffffffffffffffffffffffff16610a2c61065b565b73ffffffffffffffffffffffffffffffffffffffff1614610a82576040517f08c379a0000000000000000000000000000000000000000000000000000000008152600401610a7990611526565b60405180910390fd5b600073ffffffffffffffffffffffffffffffffffffffff168173ffffffffffffffffffffffffffffffffffffffff161415610af2576040517f08c379a0000000000000000000000000000000000000000000000000000000008152600401610ae9906114e6565b60405180910390fd5b610afb81610c2b565b50565b60008183610b0c919061167c565b905092915050565b610b958363a9059cbb60e01b8484604051602401610b33929190611440565b604051602081830303815290604052907bffffffffffffffffffffffffffffffffffffffffffffffffffffffff19166020820180517bffffffffffffffffffffffffffffffffffffffffffffffffffffffff8381831617835250505050610cf1565b505050565b600033905090565b610c25846323b872dd60e01b858585604051602401610bc393929190611409565b604051602081830303815290604052907bffffffffffffffffffffffffffffffffffffffffffffffffffffffff19166020820180517bffffffffffffffffffffffffffffffffffffffffffffffffffffffff8381831617835250505050610cf1565b50505050565b6000600160009054906101000a900473ffffffffffffffffffffffffffffffffffffffff16905081600160006101000a81548173ffffffffffffffffffffffffffffffffffffffff021916908373ffffffffffffffffffffffffffffffffffffffff1602179055508173ffffffffffffffffffffffffffffffffffffffff168173ffffffffffffffffffffffffffffffffffffffff167f8be0079c531659141344cd1fd0a4f28419497f9722a3daafe3b4186f6b6457e060405160405180910390a35050565b6000610d53826040518060400160405280602081526020017f5361666545524332303a206c6f772d6c6576656c2063616c6c206661696c65648152508573ffffffffffffffffffffffffffffffffffffffff16610db89092919063ffffffff16565b9050600081511115610db35780806020019051810190610d739190611144565b610db2576040517f08c379a0000000000000000000000000000000000000000000000000000000008152600401610da9906115a6565b60405180910390fd5b5b505050565b6060610dc78484600085610dd0565b90509392505050565b606082471015610e15576040517f08c379a0000000000000000000000000000000000000000000000000000000008152600401610e0c90611506565b60405180910390fd5b610e1e85610ee4565b610e5d576040517f08c379a0000000000000000000000000000000000000000000000000000000008152600401610e5490611566565b60405180910390fd5b6000808673ffffffffffffffffffffffffffffffffffffffff168587604051610e8691906113d7565b60006040518083038185875af1925050503d8060008114610ec3576040519150601f19603f3d011682016040523d82523d6000602084013e610ec8565b606091505b5091509150610ed8828286610f07565b92505050949350505050565b6000808273ffffffffffffffffffffffffffffffffffffffff163b119050919050565b60608315610f1757829050610f67565b600083511115610f2a5782518084602001fd5b816040517f08c379a0000000000000000000000000000000000000000000000000000000008152600401610f5e9190611484565b60405180910390fd5b9392505050565b600081359050610f7d81611a33565b92915050565b60008083601f840112610f9557600080fd5b8235905067ffffffffffffffff811115610fae57600080fd5b602083019150836020820283011115610fc657600080fd5b9250929050565b60008083601f840112610fdf57600080fd5b8235905067ffffffffffffffff811115610ff857600080fd5b60208301915083602082028301111561101057600080fd5b9250929050565b60008151905061102681611a4a565b92915050565b60008135905061103b81611a61565b92915050565b60008151905061105081611a61565b92915050565b60006020828403121561106857600080fd5b600061107684828501610f6e565b91505092915050565b6000806040838503121561109257600080fd5b60006110a085828601610f6e565b92505060206110b18582860161102c565b9150509250929050565b6000806000806000606086880312156110d357600080fd5b600086013567ffffffffffffffff8111156110ed57600080fd5b6110f988828901610f83565b9550955050602086013567ffffffffffffffff81111561111857600080fd5b61112488828901610fcd565b935093505060406111378882890161102c565b9150509295509295909350565b60006020828403121561115657600080fd5b600061116484828501611017565b91505092915050565b60006020828403121561117f57600080fd5b600061118d8482850161102c565b91505092915050565b6000602082840312156111a857600080fd5b60006111b684828501611041565b91505092915050565b6111c8816116b0565b82525050565b60006111d98261164a565b6111e38185611660565b93506111f381856020860161171c565b80840191505092915050565b611208816116f8565b82525050565b600061121982611655565b611223818561166b565b935061123381856020860161171c565b61123c816117c7565b840191505092915050565b600061125460128361166b565b915061125f826117d8565b602082019050919050565b6000611277601c8361166b565b915061128282611801565b602082019050919050565b600061129a60268361166b565b91506112a58261182a565b604082019050919050565b60006112bd60268361166b565b91506112c882611879565b604082019050919050565b60006112e060208361166b565b91506112eb826118c8565b602082019050919050565b6000611303601c8361166b565b915061130e826118f1565b602082019050919050565b6000611326601d8361166b565b91506113318261191a565b602082019050919050565b600061134960178361166b565b915061135482611943565b602082019050919050565b600061136c602a8361166b565b91506113778261196c565b604082019050919050565b600061138f601f8361166b565b915061139a826119bb565b602082019050919050565b60006113b260368361166b565b91506113bd826119e4565b604082019050919050565b6113d1816116ee565b82525050565b60006113e382846111ce565b915081905092915050565b600060208201905061140360008301846111bf565b92915050565b600060608201905061141e60008301866111bf565b61142b60208301856111bf565b61143860408301846113c8565b949350505050565b600060408201905061145560008301856111bf565b61146260208301846113c8565b9392505050565b600060208201905061147e60008301846111ff565b92915050565b6000602082019050818103600083015261149e818461120e565b905092915050565b600060208201905081810360008301526114bf81611247565b9050919050565b600060208201905081810360008301526114df8161126a565b9050919050565b600060208201905081810360008301526114ff8161128d565b9050919050565b6000602082019050818103600083015261151f816112b0565b9050919050565b6000602082019050818103600083015261153f816112d3565b9050919050565b6000602082019050818103600083015261155f816112f6565b9050919050565b6000602082019050818103600083015261157f81611319565b9050919050565b6000602082019050818103600083015261159f8161133c565b9050919050565b600060208201905081810360008301526115bf8161135f565b9050919050565b600060208201905081810360008301526115df81611382565b9050919050565b600060208201905081810360008301526115ff816113a5565b9050919050565b600060208201905061161b60008301846113c8565b92915050565b600060408201905061163660008301856113c8565b61164360208301846113c8565b9392505050565b600081519050919050565b600081519050919050565b600081905092915050565b600082825260208201905092915050565b6000611687826116ee565b9150611692836116ee565b9250828210156116a5576116a4611798565b5b828203905092915050565b60006116bb826116ce565b9050919050565b60008115159050919050565b600073ffffffffffffffffffffffffffffffffffffffff82169050919050565b6000819050919050565b60006117038261170a565b9050919050565b6000611715826116ce565b9050919050565b60005b8381101561173a57808201518184015260208101905061171f565b83811115611749576000848401525b50505050565b600061175a826116ee565b91507fffffffffffffffffffffffffffffffffffffffffffffffffffffffffffffffff82141561178d5761178c611798565b5b600182019050919050565b7f4e487b7100000000000000000000000000000000000000000000000000000000600052601160045260246000fd5b6000601f19601f8301169050919050565b7f6e6f2070656e64696e6720726577617264730000000000000000000000000000600082015250565b7f696e73756666696369656e742070656e64696e67207265776172647300000000600082015250565b7f4f776e61626c653a206e6577206f776e657220697320746865207a65726f206160008201527f6464726573730000000000000000000000000000000000000000000000000000602082015250565b7f416464726573733a20696e73756666696369656e742062616c616e636520666f60008201527f722063616c6c0000000000000000000000000000000000000000000000000000602082015250565b7f4f776e61626c653a2063616c6c6572206973206e6f7420746865206f776e6572600082015250565b7f7061796c6f616473206d7573742062652073616d65206c656e67746800000000600082015250565b7f416464726573733a2063616c6c20746f206e6f6e2d636f6e7472616374000000600082015250565b7f696e636f7272656374206465706f73697420746f6b656e000000000000000000600082015250565b7f5361666545524332303a204552433230206f7065726174696f6e20646964206e60008201527f6f74207375636365656400000000000000000000000000000000000000000000602082015250565b7f5265656e7472616e637947756172643a207265656e7472616e742063616c6c00600082015250565b7f636f6e747261637420646f6573206e6f7420686f6c6420656e6f75676820667560008201527f6e647320746f20737570706f7274207265776172647300000000000000000000602082015250565b611a3c816116b0565b8114611a4757600080fd5b50565b611a53816116c2565b8114611a5e57600080fd5b50565b611a6a816116ee565b8114611a7557600080fd5b5056fea2646970667358221220b8bedb148e648060c4be06a4389d11a32a70a720eb839b421dbde66f41cf6e7364736f6c63430008040033",
  "linkReferences": {},
  "deployedLinkReferences": {}
}