{
  "_format": "hh-sol-artifact-1",
  "contractName": "ClaimRewards",
  "sourceName": "contracts/ClaimRewards.sol",
  "abi": [
    {
      "inputs": [
        {
          "internalType": "address",
          "name": "_rewardsToken",
          "type": "address"
        }
      ],
      "stateMutability": "nonpayable",
      "type": "constructor"
    },
    {
      "anonymous": false,
      "inputs": [
        {
          "indexed": true,
          "internalType": "address",
          "name": "previousOwner",
          "type": "address"
        },
        {
          "indexed": true,
          "internalType": "address",
          "name": "newOwner",
          "type": "address"
        }
      ],
      "name": "OwnershipTransferred",
      "type": "event"
    },
    {
      "anonymous": false,
      "inputs": [
        {
          "indexed": true,
          "internalType": "address",
          "name": "user",
          "type": "address"
        },
        {
          "indexed": false,
          "internalType": "uint256",
          "name": "amount",
          "type": "uint256"
        }
      ],
      "name": "claimReward",
      "type": "event"
    },
    {
      "anonymous": false,
      "inputs": [
        {
          "indexed": false,
          "internalType": "uint256",
          "name": "time",
          "type": "uint256"
        },
        {
          "indexed": false,
          "internalType": "uint256",
          "name": "amount",
          "type": "uint256"
        }
      ],
      "name": "rewardsDeposited",
      "type": "event"
    },
    {
      "anonymous": false,
      "inputs": [
        {
          "indexed": false,
          "internalType": "uint256",
          "name": "totalRewards",
          "type": "uint256"
        }
      ],
      "name": "rewardsUploaded",
      "type": "event"
    },
    {
      "inputs": [
        {
          "internalType": "uint256",
          "name": "_amount",
          "type": "uint256"
        }
      ],
      "name": "claimRewards",
      "outputs": [],
      "stateMutability": "nonpayable",
      "type": "function"
    },
    {
      "inputs": [
        {
          "internalType": "address",
          "name": "_rewardsToken",
          "type": "address"
        },
        {
          "internalType": "uint256",
          "name": "_amount",
          "type": "uint256"
        }
      ],
      "name": "depositRewardTokens",
      "outputs": [],
      "stateMutability": "nonpayable",
      "type": "function"
    },
    {
      "inputs": [],
      "name": "getRewardTokenAddress",
      "outputs": [
        {
          "internalType": "address",
          "name": "",
          "type": "address"
        }
      ],
      "stateMutability": "view",
      "type": "function"
    },
    {
      "inputs": [
        {
          "internalType": "uint256",
          "name": "",
          "type": "uint256"
        }
      ],
      "name": "nftRewardValue",
      "outputs": [
        {
          "internalType": "uint256",
          "name": "",
          "type": "uint256"
        }
      ],
      "stateMutability": "view",
      "type": "function"
    },
    {
      "inputs": [],
      "name": "owner",
      "outputs": [
        {
          "internalType": "address",
          "name": "",
          "type": "address"
        }
      ],
      "stateMutability": "view",
      "type": "function"
    },
    {
      "inputs": [
        {
          "internalType": "address",
          "name": "",
          "type": "address"
        }
      ],
      "name": "pendingRewards",
      "outputs": [
        {
          "internalType": "uint256",
          "name": "",
          "type": "uint256"
        }
      ],
      "stateMutability": "view",
      "type": "function"
    },
    {
      "inputs": [],
      "name": "renounceOwnership",
      "outputs": [],
      "stateMutability": "nonpayable",
      "type": "function"
    },
    {
      "inputs": [],
      "name": "rewardsToken",
      "outputs": [
        {
          "internalType": "contract IERC20",
          "name": "",
          "type": "address"
        }
      ],
      "stateMutability": "view",
      "type": "function"
    },
    {
      "inputs": [
        {
          "internalType": "uint256[]",
          "name": "_rewardValues",
          "type": "uint256[]"
        },
        {
          "internalType": "uint256",
          "name": "_upperBound",
          "type": "uint256"
        }
      ],
      "name": "setNftRewardValues",
      "outputs": [],
      "stateMutability": "nonpayable",
      "type": "function"
    },
    {
      "inputs": [
        {
          "internalType": "address",
          "name": "newOwner",
          "type": "address"
        }
      ],
      "name": "transferOwnership",
      "outputs": [],
      "stateMutability": "nonpayable",
      "type": "function"
    },
    {
      "inputs": [
        {
          "internalType": "address[]",
          "name": "_holders",
          "type": "address[]"
        },
        {
          "internalType": "uint256[]",
          "name": "_rewardAmounts",
          "type": "uint256[]"
        },
        {
          "internalType": "uint256",
          "name": "_totalRewards",
          "type": "uint256"
        }
      ],
      "name": "uploadRewards",
      "outputs": [],
      "stateMutability": "nonpayable",
      "type": "function"
    }
  ],
  "bytecode": "0x60a06040523480156200001157600080fd5b5060405162001faf38038062001faf8339818101604052810190620000379190620001f5565b60016000819055506200005f620000536200011060201b60201c565b6200011860201b60201c565b600073ffffffffffffffffffffffffffffffffffffffff168173ffffffffffffffffffffffffffffffffffffffff161415620000d2576040517f08c379a0000000000000000000000000000000000000000000000000000000008152600401620000c99062000248565b60405180910390fd5b8073ffffffffffffffffffffffffffffffffffffffff1660808173ffffffffffffffffffffffffffffffffffffffff1660601b8152505050620002f2565b600033905090565b6000600160009054906101000a900473ffffffffffffffffffffffffffffffffffffffff16905081600160006101000a81548173ffffffffffffffffffffffffffffffffffffffff021916908373ffffffffffffffffffffffffffffffffffffffff1602179055508173ffffffffffffffffffffffffffffffffffffffff168173ffffffffffffffffffffffffffffffffffffffff167f8be0079c531659141344cd1fd0a4f28419497f9722a3daafe3b4186f6b6457e060405160405180910390a35050565b600081519050620001ef81620002d8565b92915050565b6000602082840312156200020857600080fd5b60006200021884828501620001de565b91505092915050565b6000620002306017836200026a565b91506200023d82620002af565b602082019050919050565b60006020820190508181036000830152620002638162000221565b9050919050565b600082825260208201905092915050565b600062000288826200028f565b9050919050565b600073ffffffffffffffffffffffffffffffffffffffff82169050919050565b7f6f6e6c79206e6f6e2d7a65726f20616464726573736573000000000000000000600082015250565b620002e3816200027b565b8114620002ef57600080fd5b50565b60805160601c611c7b620003346000396000818161039e015281816104ff01528181610593015281816107030152818161083b0152610a5e0152611c7b6000f3fe608060405234801561001057600080fd5b50600436106100a95760003560e01c80638da5cb5b116100715780638da5cb5b1461015057806399e117a01461016e578063c8bb42641461018c578063d1af0c7d146101a8578063e92b13b0146101c6578063f2fde38b146101e2576100a9565b80630962ef79146100ae5780632cb99a3b146100ca57806331d7a262146100e65780635b2ceb0714610116578063715018a614610146575b600080fd5b6100c860048036038101906100c3919061133a565b6101fe565b005b6100e460048036038101906100df91906111f4565b610433565b005b61010060048036038101906100fb91906111cb565b61061d565b60405161010d91906117d3565b60405180910390f35b610130600480360381019061012b919061133a565b610635565b60405161013d91906117d3565b60405180910390f35b61014e61064d565b005b6101586106d5565b60405161016591906115bb565b60405180910390f35b6101766106ff565b60405161018391906115bb565b60405180910390f35b6101a660048036038101906101a19190611230565b610727565b005b6101b0610a5c565b6040516101bd9190611636565b60405180910390f35b6101e060048036038101906101db91906112b9565b610a80565b005b6101fc60048036038101906101f791906111cb565b610b7b565b005b6000600260003373ffffffffffffffffffffffffffffffffffffffff1673ffffffffffffffffffffffffffffffffffffffff1681526020019081526020016000205411610280576040517f08c379a000000000000000000000000000000000000000000000000000000000815260040161027790611673565b60405180910390fd5b80600260003373ffffffffffffffffffffffffffffffffffffffff1673ffffffffffffffffffffffffffffffffffffffff168152602001908152602001600020541015610302576040517f08c379a00000000000000000000000000000000000000000000000000000000081526004016102f990611693565b60405180910390fd5b61035481600260003373ffffffffffffffffffffffffffffffffffffffff1673ffffffffffffffffffffffffffffffffffffffff16815260200190815260200160002054610c7390919063ffffffff16565b600260003373ffffffffffffffffffffffffffffffffffffffff1673ffffffffffffffffffffffffffffffffffffffff168152602001908152602001600020819055506103e233827f000000000000000000000000000000000000000000000000000000000000000073ffffffffffffffffffffffffffffffffffffffff16610c899092919063ffffffff16565b3373ffffffffffffffffffffffffffffffffffffffff167f174e31c4b7bff04f5485142590a104a3d74ac636ea6a070e5157921e2b5f98488260405161042891906117d3565b60405180910390a250565b60026000541415610479576040517f08c379a000000000000000000000000000000000000000000000000000000000815260040161047090611793565b60405180910390fd5b6002600081905550610489610d0f565b73ffffffffffffffffffffffffffffffffffffffff166104a76106d5565b73ffffffffffffffffffffffffffffffffffffffff16146104fd576040517f08c379a00000000000000000000000000000000000000000000000000000000081526004016104f4906116f3565b60405180910390fd5b7f000000000000000000000000000000000000000000000000000000000000000073ffffffffffffffffffffffffffffffffffffffff168273ffffffffffffffffffffffffffffffffffffffff161461058b576040517f08c379a000000000000000000000000000000000000000000000000000000000815260040161058290611753565b60405180910390fd5b6105d83330837f000000000000000000000000000000000000000000000000000000000000000073ffffffffffffffffffffffffffffffffffffffff16610d17909392919063ffffffff16565b7f373cbcccbf652e87ca556ab2040d45c3ecb498ba1432ba195a8f462634c7afb642826040516106099291906117ee565b60405180910390a160016000819055505050565b60026020528060005260406000206000915090505481565b60036020528060005260406000206000915090505481565b610655610d0f565b73ffffffffffffffffffffffffffffffffffffffff166106736106d5565b73ffffffffffffffffffffffffffffffffffffffff16146106c9576040517f08c379a00000000000000000000000000000000000000000000000000000000081526004016106c0906116f3565b60405180910390fd5b6106d36000610da0565b565b6000600160009054906101000a900473ffffffffffffffffffffffffffffffffffffffff16905090565b60007f0000000000000000000000000000000000000000000000000000000000000000905090565b6002600054141561076d576040517f08c379a000000000000000000000000000000000000000000000000000000000815260040161076490611793565b60405180910390fd5b600260008190555061077d610d0f565b73ffffffffffffffffffffffffffffffffffffffff1661079b6106d5565b73ffffffffffffffffffffffffffffffffffffffff16146107f1576040517f08c379a00000000000000000000000000000000000000000000000000000000081526004016107e8906116f3565b60405180910390fd5b828290508585905014610839576040517f08c379a000000000000000000000000000000000000000000000000000000000815260040161083090611713565b60405180910390fd5b7f000000000000000000000000000000000000000000000000000000000000000073ffffffffffffffffffffffffffffffffffffffff166370a08231306040518263ffffffff1660e01b815260040161089291906115bb565b60206040518083038186803b1580156108aa57600080fd5b505afa1580156108be573d6000803e3d6000fd5b505050506040513d601f19601f820116820180604052508101906108e29190611363565b811115610924576040517f08c379a000000000000000000000000000000000000000000000000000000000815260040161091b906117b3565b60405180910390fd5b60005b85859050811015610a155783838281811061096b577f4e487b7100000000000000000000000000000000000000000000000000000000600052603260045260246000fd5b90506020020135600260008888858181106109af577f4e487b7100000000000000000000000000000000000000000000000000000000600052603260045260246000fd5b90506020020160208101906109c491906111cb565b73ffffffffffffffffffffffffffffffffffffffff1673ffffffffffffffffffffffffffffffffffffffff168152602001908152602001600020819055508080610a0d9061191c565b915050610927565b507ff8079795d7d0cdbc9e5e2e89d5b11c76e2f79619aaed8ccbb97930258676915f81604051610a4591906117d3565b60405180910390a160016000819055505050505050565b7f000000000000000000000000000000000000000000000000000000000000000081565b610a88610d0f565b73ffffffffffffffffffffffffffffffffffffffff16610aa66106d5565b73ffffffffffffffffffffffffffffffffffffffff1614610afc576040517f08c379a0000000000000000000000000000000000000000000000000000000008152600401610af3906116f3565b60405180910390fd5b6000600190505b81811015610b7557838382818110610b44577f4e487b7100000000000000000000000000000000000000000000000000000000600052603260045260246000fd5b9050602002013560036000838152602001908152602001600020819055508080610b6d9061191c565b915050610b03565b50505050565b610b83610d0f565b73ffffffffffffffffffffffffffffffffffffffff16610ba16106d5565b73ffffffffffffffffffffffffffffffffffffffff1614610bf7576040517f08c379a0000000000000000000000000000000000000000000000000000000008152600401610bee906116f3565b60405180910390fd5b600073ffffffffffffffffffffffffffffffffffffffff168173ffffffffffffffffffffffffffffffffffffffff161415610c67576040517f08c379a0000000000000000000000000000000000000000000000000000000008152600401610c5e906116b3565b60405180910390fd5b610c7081610da0565b50565b60008183610c819190611849565b905092915050565b610d0a8363a9059cbb60e01b8484604051602401610ca892919061160d565b604051602081830303815290604052907bffffffffffffffffffffffffffffffffffffffffffffffffffffffff19166020820180517bffffffffffffffffffffffffffffffffffffffffffffffffffffffff8381831617835250505050610e66565b505050565b600033905090565b610d9a846323b872dd60e01b858585604051602401610d38939291906115d6565b604051602081830303815290604052907bffffffffffffffffffffffffffffffffffffffffffffffffffffffff19166020820180517bffffffffffffffffffffffffffffffffffffffffffffffffffffffff8381831617835250505050610e66565b50505050565b6000600160009054906101000a900473ffffffffffffffffffffffffffffffffffffffff16905081600160006101000a81548173ffffffffffffffffffffffffffffffffffffffff021916908373ffffffffffffffffffffffffffffffffffffffff1602179055508173ffffffffffffffffffffffffffffffffffffffff168173ffffffffffffffffffffffffffffffffffffffff167f8be0079c531659141344cd1fd0a4f28419497f9722a3daafe3b4186f6b6457e060405160405180910390a35050565b6000610ec8826040518060400160405280602081526020017f5361666545524332303a206c6f772d6c6576656c2063616c6c206661696c65648152508573ffffffffffffffffffffffffffffffffffffffff16610f2d9092919063ffffffff16565b9050600081511115610f285780806020019051810190610ee89190611311565b610f27576040517f08c379a0000000000000000000000000000000000000000000000000000000008152600401610f1e90611773565b60405180910390fd5b5b505050565b6060610f3c8484600085610f45565b90509392505050565b606082471015610f8a576040517f08c379a0000000000000000000000000000000000000000000000000000000008152600401610f81906116d3565b60405180910390fd5b610f9385611059565b610fd2576040517f08c379a0000000000000000000000000000000000000000000000000000000008152600401610fc990611733565b60405180910390fd5b6000808673ffffffffffffffffffffffffffffffffffffffff168587604051610ffb91906115a4565b60006040518083038185875af1925050503d8060008114611038576040519150601f19603f3d011682016040523d82523d6000602084013e61103d565b606091505b509150915061104d82828661107c565b92505050949350505050565b6000808273ffffffffffffffffffffffffffffffffffffffff163b119050919050565b6060831561108c578290506110dc565b60008351111561109f5782518084602001fd5b816040517f08c379a00000000000000000000000000000000000000000000000000000000081526004016110d39190611651565b60405180910390fd5b9392505050565b6000813590506110f281611c00565b92915050565b60008083601f84011261110a57600080fd5b8235905067ffffffffffffffff81111561112357600080fd5b60208301915083602082028301111561113b57600080fd5b9250929050565b60008083601f84011261115457600080fd5b8235905067ffffffffffffffff81111561116d57600080fd5b60208301915083602082028301111561118557600080fd5b9250929050565b60008151905061119b81611c17565b92915050565b6000813590506111b081611c2e565b92915050565b6000815190506111c581611c2e565b92915050565b6000602082840312156111dd57600080fd5b60006111eb848285016110e3565b91505092915050565b6000806040838503121561120757600080fd5b6000611215858286016110e3565b9250506020611226858286016111a1565b9150509250929050565b60008060008060006060868803121561124857600080fd5b600086013567ffffffffffffffff81111561126257600080fd5b61126e888289016110f8565b9550955050602086013567ffffffffffffffff81111561128d57600080fd5b61129988828901611142565b935093505060406112ac888289016111a1565b9150509295509295909350565b6000806000604084860312156112ce57600080fd5b600084013567ffffffffffffffff8111156112e857600080fd5b6112f486828701611142565b93509350506020611307868287016111a1565b9150509250925092565b60006020828403121561132357600080fd5b60006113318482850161118c565b91505092915050565b60006020828403121561134c57600080fd5b600061135a848285016111a1565b91505092915050565b60006020828403121561137557600080fd5b6000611383848285016111b6565b91505092915050565b6113958161187d565b82525050565b60006113a682611817565b6113b0818561182d565b93506113c08185602086016118e9565b80840191505092915050565b6113d5816118c5565b82525050565b60006113e682611822565b6113f08185611838565b93506114008185602086016118e9565b61140981611994565b840191505092915050565b6000611421601283611838565b915061142c826119a5565b602082019050919050565b6000611444601c83611838565b915061144f826119ce565b602082019050919050565b6000611467602683611838565b9150611472826119f7565b604082019050919050565b600061148a602683611838565b915061149582611a46565b604082019050919050565b60006114ad602083611838565b91506114b882611a95565b602082019050919050565b60006114d0601c83611838565b91506114db82611abe565b602082019050919050565b60006114f3601d83611838565b91506114fe82611ae7565b602082019050919050565b6000611516601783611838565b915061152182611b10565b602082019050919050565b6000611539602a83611838565b915061154482611b39565b604082019050919050565b600061155c601f83611838565b915061156782611b88565b602082019050919050565b600061157f603683611838565b915061158a82611bb1565b604082019050919050565b61159e816118bb565b82525050565b60006115b0828461139b565b915081905092915050565b60006020820190506115d0600083018461138c565b92915050565b60006060820190506115eb600083018661138c565b6115f8602083018561138c565b6116056040830184611595565b949350505050565b6000604082019050611622600083018561138c565b61162f6020830184611595565b9392505050565b600060208201905061164b60008301846113cc565b92915050565b6000602082019050818103600083015261166b81846113db565b905092915050565b6000602082019050818103600083015261168c81611414565b9050919050565b600060208201905081810360008301526116ac81611437565b9050919050565b600060208201905081810360008301526116cc8161145a565b9050919050565b600060208201905081810360008301526116ec8161147d565b9050919050565b6000602082019050818103600083015261170c816114a0565b9050919050565b6000602082019050818103600083015261172c816114c3565b9050919050565b6000602082019050818103600083015261174c816114e6565b9050919050565b6000602082019050818103600083015261176c81611509565b9050919050565b6000602082019050818103600083015261178c8161152c565b9050919050565b600060208201905081810360008301526117ac8161154f565b9050919050565b600060208201905081810360008301526117cc81611572565b9050919050565b60006020820190506117e86000830184611595565b92915050565b60006040820190506118036000830185611595565b6118106020830184611595565b9392505050565b600081519050919050565b600081519050919050565b600081905092915050565b600082825260208201905092915050565b6000611854826118bb565b915061185f836118bb565b92508282101561187257611871611965565b5b828203905092915050565b60006118888261189b565b9050919050565b60008115159050919050565b600073ffffffffffffffffffffffffffffffffffffffff82169050919050565b6000819050919050565b60006118d0826118d7565b9050919050565b60006118e28261189b565b9050919050565b60005b838110156119075780820151818401526020810190506118ec565b83811115611916576000848401525b50505050565b6000611927826118bb565b91507fffffffffffffffffffffffffffffffffffffffffffffffffffffffffffffffff82141561195a57611959611965565b5b600182019050919050565b7f4e487b7100000000000000000000000000000000000000000000000000000000600052601160045260246000fd5b6000601f19601f8301169050919050565b7f6e6f2070656e64696e6720726577617264730000000000000000000000000000600082015250565b7f696e73756666696369656e742070656e64696e67207265776172647300000000600082015250565b7f4f776e61626c653a206e6577206f776e657220697320746865207a65726f206160008201527f6464726573730000000000000000000000000000000000000000000000000000602082015250565b7f416464726573733a20696e73756666696369656e742062616c616e636520666f60008201527f722063616c6c0000000000000000000000000000000000000000000000000000602082015250565b7f4f776e61626c653a2063616c6c6572206973206e6f7420746865206f776e6572600082015250565b7f7061796c6f616473206d7573742062652073616d65206c656e67746800000000600082015250565b7f416464726573733a2063616c6c20746f206e6f6e2d636f6e7472616374000000600082015250565b7f696e636f7272656374206465706f73697420746f6b656e000000000000000000600082015250565b7f5361666545524332303a204552433230206f7065726174696f6e20646964206e60008201527f6f74207375636365656400000000000000000000000000000000000000000000602082015250565b7f5265656e7472616e637947756172643a207265656e7472616e742063616c6c00600082015250565b7f636f6e747261637420646f6573206e6f7420686f6c6420656e6f75676820667560008201527f6e647320746f20737570706f7274207265776172647300000000000000000000602082015250565b611c098161187d565b8114611c1457600080fd5b50565b611c208161188f565b8114611c2b57600080fd5b50565b611c37816118bb565b8114611c4257600080fd5b5056fea2646970667358221220300ce6e18db6bb13b446225d2bdacc2118d217d8b278da3442ffdd113e5b103e64736f6c63430008040033",
  "linkReferences": {},
  "deployedLinkReferences": {}
}