{
  "_format": "hh-sol-artifact-1",
  "contractName": "ClaimRewards",
  "sourceName": "contracts/ClaimRewards.sol",
  "abi": [
    {
      "inputs": [
        {
          "internalType": "address",
          "name": "_rewardsToken",
          "type": "address"
        }
      ],
      "stateMutability": "nonpayable",
      "type": "constructor"
    },
    {
      "anonymous": false,
      "inputs": [
        {
          "indexed": true,
          "internalType": "address",
          "name": "previousOwner",
          "type": "address"
        },
        {
          "indexed": true,
          "internalType": "address",
          "name": "newOwner",
          "type": "address"
        }
      ],
      "name": "OwnershipTransferred",
      "type": "event"
    },
    {
      "anonymous": false,
      "inputs": [
        {
          "indexed": true,
          "internalType": "address",
          "name": "user",
          "type": "address"
        },
        {
          "indexed": false,
          "internalType": "uint256",
          "name": "amount",
          "type": "uint256"
        }
      ],
      "name": "claimReward",
      "type": "event"
    },
    {
      "anonymous": false,
      "inputs": [
        {
          "indexed": false,
          "internalType": "uint256",
          "name": "time",
          "type": "uint256"
        },
        {
          "indexed": false,
          "internalType": "uint256",
          "name": "amount",
          "type": "uint256"
        }
      ],
      "name": "rewardsDeposited",
      "type": "event"
    },
    {
      "anonymous": false,
      "inputs": [
        {
          "indexed": false,
          "internalType": "uint256",
          "name": "totalRewards",
          "type": "uint256"
        }
      ],
      "name": "rewardsUploaded",
      "type": "event"
    },
    {
      "inputs": [
        {
          "internalType": "uint256",
          "name": "_amount",
          "type": "uint256"
        }
      ],
      "name": "claimRewards",
      "outputs": [],
      "stateMutability": "nonpayable",
      "type": "function"
    },
    {
      "inputs": [
        {
          "internalType": "address",
          "name": "_rewardsToken",
          "type": "address"
        },
        {
          "internalType": "uint256",
          "name": "_amount",
          "type": "uint256"
        }
      ],
      "name": "depositRewardTokens",
      "outputs": [],
      "stateMutability": "nonpayable",
      "type": "function"
    },
    {
      "inputs": [],
      "name": "getRewardTokenAddress",
      "outputs": [
        {
          "internalType": "address",
          "name": "",
          "type": "address"
        }
      ],
      "stateMutability": "view",
      "type": "function"
    },
    {
      "inputs": [],
      "name": "owner",
      "outputs": [
        {
          "internalType": "address",
          "name": "",
          "type": "address"
        }
      ],
      "stateMutability": "view",
      "type": "function"
    },
    {
      "inputs": [
        {
          "internalType": "address",
          "name": "",
          "type": "address"
        }
      ],
      "name": "pendingRewards",
      "outputs": [
        {
          "internalType": "uint256",
          "name": "",
          "type": "uint256"
        }
      ],
      "stateMutability": "view",
      "type": "function"
    },
    {
      "inputs": [],
      "name": "renounceOwnership",
      "outputs": [],
      "stateMutability": "nonpayable",
      "type": "function"
    },
    {
      "inputs": [],
      "name": "rewardsToken",
      "outputs": [
        {
          "internalType": "contract IERC20",
          "name": "",
          "type": "address"
        }
      ],
      "stateMutability": "view",
      "type": "function"
    },
    {
      "inputs": [
        {
          "internalType": "address",
          "name": "newOwner",
          "type": "address"
        }
      ],
      "name": "transferOwnership",
      "outputs": [],
      "stateMutability": "nonpayable",
      "type": "function"
    },
    {
      "inputs": [
        {
          "internalType": "address[]",
          "name": "_holders",
          "type": "address[]"
        },
        {
          "internalType": "uint256[]",
          "name": "_rewardAmounts",
          "type": "uint256[]"
        },
        {
          "internalType": "uint256",
          "name": "_totalRewards",
          "type": "uint256"
        }
      ],
      "name": "uploadRewards",
      "outputs": [],
      "stateMutability": "nonpayable",
      "type": "function"
    }
  ],
  "bytecode": "0x60a06040523480156200001157600080fd5b5060405162001c7638038062001c768339818101604052810190620000379190620001f5565b60016000819055506200005f620000536200011060201b60201c565b6200011860201b60201c565b600073ffffffffffffffffffffffffffffffffffffffff168173ffffffffffffffffffffffffffffffffffffffff161415620000d2576040517f08c379a0000000000000000000000000000000000000000000000000000000008152600401620000c99062000248565b60405180910390fd5b8073ffffffffffffffffffffffffffffffffffffffff1660808173ffffffffffffffffffffffffffffffffffffffff1660601b8152505050620002f2565b600033905090565b6000600160009054906101000a900473ffffffffffffffffffffffffffffffffffffffff16905081600160006101000a81548173ffffffffffffffffffffffffffffffffffffffff021916908373ffffffffffffffffffffffffffffffffffffffff1602179055508173ffffffffffffffffffffffffffffffffffffffff168173ffffffffffffffffffffffffffffffffffffffff167f8be0079c531659141344cd1fd0a4f28419497f9722a3daafe3b4186f6b6457e060405160405180910390a35050565b600081519050620001ef81620002d8565b92915050565b6000602082840312156200020857600080fd5b60006200021884828501620001de565b91505092915050565b6000620002306017836200026a565b91506200023d82620002af565b602082019050919050565b60006020820190508181036000830152620002638162000221565b9050919050565b600082825260208201905092915050565b600062000288826200028f565b9050919050565b600073ffffffffffffffffffffffffffffffffffffffff82169050919050565b7f6f6e6c79206e6f6e2d7a65726f20616464726573736573000000000000000000600082015250565b620002e3816200027b565b8114620002ef57600080fd5b50565b60805160601c6119496200032d6000396000818161038a015281816104f301528181610587015281816106df015261094f01526119496000f3fe608060405234801561001057600080fd5b50600436106100935760003560e01c80638da5cb5b116100665780638da5cb5b1461010a57806399e117a014610128578063c8bb426414610146578063d1af0c7d14610162578063f2fde38b1461018057610093565b80630962ef79146100985780632cb99a3b146100b457806331d7a262146100d0578063715018a614610100575b600080fd5b6100b260048036038101906100ad91906110c3565b61019c565b005b6100ce60048036038101906100c99190610fd5565b610427565b005b6100ea60048036038101906100e59190610fac565b610611565b6040516100f791906114f0565b60405180910390f35b610108610629565b005b6101126106b1565b60405161011f91906112f8565b60405180910390f35b6101306106db565b60405161013d91906112f8565b60405180910390f35b610160600480360381019061015b9190611011565b610703565b005b61016a61094d565b6040516101779190611373565b60405180910390f35b61019a60048036038101906101959190610fac565b610971565b005b600260005414156101e2576040517f08c379a00000000000000000000000000000000000000000000000000000000081526004016101d9906114d0565b60405180910390fd5b60026000819055506000600260003373ffffffffffffffffffffffffffffffffffffffff1673ffffffffffffffffffffffffffffffffffffffff168152602001908152602001600020541161026c576040517f08c379a0000000000000000000000000000000000000000000000000000000008152600401610263906113b0565b60405180910390fd5b80600260003373ffffffffffffffffffffffffffffffffffffffff1673ffffffffffffffffffffffffffffffffffffffff1681526020019081526020016000205410156102ee576040517f08c379a00000000000000000000000000000000000000000000000000000000081526004016102e5906113d0565b60405180910390fd5b61034081600260003373ffffffffffffffffffffffffffffffffffffffff1673ffffffffffffffffffffffffffffffffffffffff16815260200190815260200160002054610a6990919063ffffffff16565b600260003373ffffffffffffffffffffffffffffffffffffffff1673ffffffffffffffffffffffffffffffffffffffff168152602001908152602001600020819055506103ce33827f000000000000000000000000000000000000000000000000000000000000000073ffffffffffffffffffffffffffffffffffffffff16610a7f9092919063ffffffff16565b3373ffffffffffffffffffffffffffffffffffffffff167f174e31c4b7bff04f5485142590a104a3d74ac636ea6a070e5157921e2b5f98488260405161041491906114f0565b60405180910390a2600160008190555050565b6002600054141561046d576040517f08c379a0000000000000000000000000000000000000000000000000000000008152600401610464906114d0565b60405180910390fd5b600260008190555061047d610b05565b73ffffffffffffffffffffffffffffffffffffffff1661049b6106b1565b73ffffffffffffffffffffffffffffffffffffffff16146104f1576040517f08c379a00000000000000000000000000000000000000000000000000000000081526004016104e890611430565b60405180910390fd5b7f000000000000000000000000000000000000000000000000000000000000000073ffffffffffffffffffffffffffffffffffffffff168273ffffffffffffffffffffffffffffffffffffffff161461057f576040517f08c379a000000000000000000000000000000000000000000000000000000000815260040161057690611490565b60405180910390fd5b6105cc3330837f000000000000000000000000000000000000000000000000000000000000000073ffffffffffffffffffffffffffffffffffffffff16610b0d909392919063ffffffff16565b7f373cbcccbf652e87ca556ab2040d45c3ecb498ba1432ba195a8f462634c7afb642826040516105fd92919061150b565b60405180910390a160016000819055505050565b60026020528060005260406000206000915090505481565b610631610b05565b73ffffffffffffffffffffffffffffffffffffffff1661064f6106b1565b73ffffffffffffffffffffffffffffffffffffffff16146106a5576040517f08c379a000000000000000000000000000000000000000000000000000000000815260040161069c90611430565b60405180910390fd5b6106af6000610b96565b565b6000600160009054906101000a900473ffffffffffffffffffffffffffffffffffffffff16905090565b60007f0000000000000000000000000000000000000000000000000000000000000000905090565b60026000541415610749576040517f08c379a0000000000000000000000000000000000000000000000000000000008152600401610740906114d0565b60405180910390fd5b6002600081905550610759610b05565b73ffffffffffffffffffffffffffffffffffffffff166107776106b1565b73ffffffffffffffffffffffffffffffffffffffff16146107cd576040517f08c379a00000000000000000000000000000000000000000000000000000000081526004016107c490611430565b60405180910390fd5b828290508585905014610815576040517f08c379a000000000000000000000000000000000000000000000000000000000815260040161080c90611450565b60405180910390fd5b60005b858590508110156109065783838281811061085c577f4e487b7100000000000000000000000000000000000000000000000000000000600052603260045260246000fd5b90506020020135600260008888858181106108a0577f4e487b7100000000000000000000000000000000000000000000000000000000600052603260045260246000fd5b90506020020160208101906108b59190610fac565b73ffffffffffffffffffffffffffffffffffffffff1673ffffffffffffffffffffffffffffffffffffffff1681526020019081526020016000208190555080806108fe90611639565b915050610818565b507ff8079795d7d0cdbc9e5e2e89d5b11c76e2f79619aaed8ccbb97930258676915f8160405161093691906114f0565b60405180910390a160016000819055505050505050565b7f000000000000000000000000000000000000000000000000000000000000000081565b610979610b05565b73ffffffffffffffffffffffffffffffffffffffff166109976106b1565b73ffffffffffffffffffffffffffffffffffffffff16146109ed576040517f08c379a00000000000000000000000000000000000000000000000000000000081526004016109e490611430565b60405180910390fd5b600073ffffffffffffffffffffffffffffffffffffffff168173ffffffffffffffffffffffffffffffffffffffff161415610a5d576040517f08c379a0000000000000000000000000000000000000000000000000000000008152600401610a54906113f0565b60405180910390fd5b610a6681610b96565b50565b60008183610a779190611566565b905092915050565b610b008363a9059cbb60e01b8484604051602401610a9e92919061134a565b604051602081830303815290604052907bffffffffffffffffffffffffffffffffffffffffffffffffffffffff19166020820180517bffffffffffffffffffffffffffffffffffffffffffffffffffffffff8381831617835250505050610c5c565b505050565b600033905090565b610b90846323b872dd60e01b858585604051602401610b2e93929190611313565b604051602081830303815290604052907bffffffffffffffffffffffffffffffffffffffffffffffffffffffff19166020820180517bffffffffffffffffffffffffffffffffffffffffffffffffffffffff8381831617835250505050610c5c565b50505050565b6000600160009054906101000a900473ffffffffffffffffffffffffffffffffffffffff16905081600160006101000a81548173ffffffffffffffffffffffffffffffffffffffff021916908373ffffffffffffffffffffffffffffffffffffffff1602179055508173ffffffffffffffffffffffffffffffffffffffff168173ffffffffffffffffffffffffffffffffffffffff167f8be0079c531659141344cd1fd0a4f28419497f9722a3daafe3b4186f6b6457e060405160405180910390a35050565b6000610cbe826040518060400160405280602081526020017f5361666545524332303a206c6f772d6c6576656c2063616c6c206661696c65648152508573ffffffffffffffffffffffffffffffffffffffff16610d239092919063ffffffff16565b9050600081511115610d1e5780806020019051810190610cde919061109a565b610d1d576040517f08c379a0000000000000000000000000000000000000000000000000000000008152600401610d14906114b0565b60405180910390fd5b5b505050565b6060610d328484600085610d3b565b90509392505050565b606082471015610d80576040517f08c379a0000000000000000000000000000000000000000000000000000000008152600401610d7790611410565b60405180910390fd5b610d8985610e4f565b610dc8576040517f08c379a0000000000000000000000000000000000000000000000000000000008152600401610dbf90611470565b60405180910390fd5b6000808673ffffffffffffffffffffffffffffffffffffffff168587604051610df191906112e1565b60006040518083038185875af1925050503d8060008114610e2e576040519150601f19603f3d011682016040523d82523d6000602084013e610e33565b606091505b5091509150610e43828286610e72565b92505050949350505050565b6000808273ffffffffffffffffffffffffffffffffffffffff163b119050919050565b60608315610e8257829050610ed2565b600083511115610e955782518084602001fd5b816040517f08c379a0000000000000000000000000000000000000000000000000000000008152600401610ec9919061138e565b60405180910390fd5b9392505050565b600081359050610ee8816118ce565b92915050565b60008083601f840112610f0057600080fd5b8235905067ffffffffffffffff811115610f1957600080fd5b602083019150836020820283011115610f3157600080fd5b9250929050565b60008083601f840112610f4a57600080fd5b8235905067ffffffffffffffff811115610f6357600080fd5b602083019150836020820283011115610f7b57600080fd5b9250929050565b600081519050610f91816118e5565b92915050565b600081359050610fa6816118fc565b92915050565b600060208284031215610fbe57600080fd5b6000610fcc84828501610ed9565b91505092915050565b60008060408385031215610fe857600080fd5b6000610ff685828601610ed9565b925050602061100785828601610f97565b9150509250929050565b60008060008060006060868803121561102957600080fd5b600086013567ffffffffffffffff81111561104357600080fd5b61104f88828901610eee565b9550955050602086013567ffffffffffffffff81111561106e57600080fd5b61107a88828901610f38565b9350935050604061108d88828901610f97565b9150509295509295909350565b6000602082840312156110ac57600080fd5b60006110ba84828501610f82565b91505092915050565b6000602082840312156110d557600080fd5b60006110e384828501610f97565b91505092915050565b6110f58161159a565b82525050565b600061110682611534565b611110818561154a565b9350611120818560208601611606565b80840191505092915050565b611135816115e2565b82525050565b60006111468261153f565b6111508185611555565b9350611160818560208601611606565b611169816116b1565b840191505092915050565b6000611181601283611555565b915061118c826116c2565b602082019050919050565b60006111a4601c83611555565b91506111af826116eb565b602082019050919050565b60006111c7602683611555565b91506111d282611714565b604082019050919050565b60006111ea602683611555565b91506111f582611763565b604082019050919050565b600061120d602083611555565b9150611218826117b2565b602082019050919050565b6000611230601c83611555565b915061123b826117db565b602082019050919050565b6000611253601d83611555565b915061125e82611804565b602082019050919050565b6000611276601783611555565b91506112818261182d565b602082019050919050565b6000611299602a83611555565b91506112a482611856565b604082019050919050565b60006112bc601f83611555565b91506112c7826118a5565b602082019050919050565b6112db816115d8565b82525050565b60006112ed82846110fb565b915081905092915050565b600060208201905061130d60008301846110ec565b92915050565b600060608201905061132860008301866110ec565b61133560208301856110ec565b61134260408301846112d2565b949350505050565b600060408201905061135f60008301856110ec565b61136c60208301846112d2565b9392505050565b6000602082019050611388600083018461112c565b92915050565b600060208201905081810360008301526113a8818461113b565b905092915050565b600060208201905081810360008301526113c981611174565b9050919050565b600060208201905081810360008301526113e981611197565b9050919050565b60006020820190508181036000830152611409816111ba565b9050919050565b60006020820190508181036000830152611429816111dd565b9050919050565b6000602082019050818103600083015261144981611200565b9050919050565b6000602082019050818103600083015261146981611223565b9050919050565b6000602082019050818103600083015261148981611246565b9050919050565b600060208201905081810360008301526114a981611269565b9050919050565b600060208201905081810360008301526114c98161128c565b9050919050565b600060208201905081810360008301526114e9816112af565b9050919050565b600060208201905061150560008301846112d2565b92915050565b600060408201905061152060008301856112d2565b61152d60208301846112d2565b9392505050565b600081519050919050565b600081519050919050565b600081905092915050565b600082825260208201905092915050565b6000611571826115d8565b915061157c836115d8565b92508282101561158f5761158e611682565b5b828203905092915050565b60006115a5826115b8565b9050919050565b60008115159050919050565b600073ffffffffffffffffffffffffffffffffffffffff82169050919050565b6000819050919050565b60006115ed826115f4565b9050919050565b60006115ff826115b8565b9050919050565b60005b83811015611624578082015181840152602081019050611609565b83811115611633576000848401525b50505050565b6000611644826115d8565b91507fffffffffffffffffffffffffffffffffffffffffffffffffffffffffffffffff82141561167757611676611682565b5b600182019050919050565b7f4e487b7100000000000000000000000000000000000000000000000000000000600052601160045260246000fd5b6000601f19601f8301169050919050565b7f6e6f2070656e64696e6720726577617264730000000000000000000000000000600082015250565b7f696e73756666696369656e742070656e64696e67207265776172647300000000600082015250565b7f4f776e61626c653a206e6577206f776e657220697320746865207a65726f206160008201527f6464726573730000000000000000000000000000000000000000000000000000602082015250565b7f416464726573733a20696e73756666696369656e742062616c616e636520666f60008201527f722063616c6c0000000000000000000000000000000000000000000000000000602082015250565b7f4f776e61626c653a2063616c6c6572206973206e6f7420746865206f776e6572600082015250565b7f7061796c6f616473206d7573742062652073616d65206c656e67746800000000600082015250565b7f416464726573733a2063616c6c20746f206e6f6e2d636f6e7472616374000000600082015250565b7f696e636f7272656374206465706f73697420746f6b656e000000000000000000600082015250565b7f5361666545524332303a204552433230206f7065726174696f6e20646964206e60008201527f6f74207375636365656400000000000000000000000000000000000000000000602082015250565b7f5265656e7472616e637947756172643a207265656e7472616e742063616c6c00600082015250565b6118d78161159a565b81146118e257600080fd5b50565b6118ee816115ac565b81146118f957600080fd5b50565b611905816115d8565b811461191057600080fd5b5056fea2646970667358221220ebb82ceee8ec8aee632123fdba00f00cc5d6db67daddcb936c351c5a2d8dde0564736f6c63430008040033",
  "linkReferences": {},
  "deployedLinkReferences": {}
}